:02000002B0004C
:1040000000400B000C9D0B00000006000C00050298
:084010000401E50C00000000B2
:0440180084870B008E
:1040200009480A49884208B505D0094A824202D0A7
:10403000121A04F043FA0748074A0021121A04F042
:104040004BFA014808BD00BF80E50320789C0B00B7
:10405000ECE50320ECE50320EDE7032070B5074E07
:10406000074C02F02FFEA41BA4080025AC4200D18F
:1040700070BD56F8043B98470135F7E72C9C0B00C0
:10408000509C0B0000F088BD08B500F0A5FCBDE811
:10409000084002F0CFBD02F03BBA02F039BA02F09C
:1040A0003FBA000008B5034A03490C2002F084F926
:1040B000FEE700BFC9600B0098870B000078B0FADC
:1040C00080F04009704701230370704708B502F083
:1040D00003F8034B1860BDE8084002F009BA00BFBE
:1040E00040E7032003682BB14268934202D218468E
:1040F00004F0DCB90020704738B50568044645B1C6
:1041000043689D4205D2284604F02EFA013005444A
:104110002560204638BDF8B5044647680D4621B9EC
:1041200003687A1C4260D955F8BD084604F01CFAB1
:10413000A368461CF2199A42F6D8206832462946EE
:10414000384404F0BBF9606830446060ECE700007C
:1041500038B504460B46D0E901012568044A091A1E
:10416000284402F0EDF9636801300344636038BD10
:10417000AD870B0038B504460B46D0E90101256830
:10418000044A091A284402F0DBF963680130034449
:10419000636038BDB0870B0008B500234377006823
:1041A00003F0F2F9BDE8084000F08CBD2DE9F043C2
:1041B00001EB02098FB04945CDE9051980460D464E
:1041C000164680F0928005A80F88FFF795FF0368D8
:1041D0004B4580F08A8005A8FFF784FF47F27623DD
:1041E0009F42C4B200F0A98027D847F261239F42C2
:1041F0007ED047F264239F4242D046F670539F42DE
:1042000028D1634E634FDFF8A081059B99456CD997
:1042100005A8FFF767FFC4B205A8FFF76DFF059D6E
:104220003146284604F08EF90146E0B9204603F0F5
:1042300037FB05A8FFF760FFE7E747F264739F428B
:104240003FD047F276739F4200F0878047F2617358
:104250009F425FD00023CDE9013302220092B8F8DB
:104260001A20194629E03946284604F06BF928B18E
:104270004146284604F066F90028DAD10121D5E745
:104280000AAB4549079307A810230025CDE9085339
:10429000FFF741FF07A82146FFF75AFF204603F02A
:1042A00029FB014607A8FFF765FF089BCDE90155EB
:1042B000013B0093079B2A461421404600F082FAF6
:1042C00013E005A8FFF718FF036899450DD9A4B2BC
:1042D0000121204603F0E4FA05A8FFF703FF011EC1
:1042E00018BF0121204603F0ECFA0FB0BDE8F083BF
:1042F0000AAB079307A8102328490025CDE90853E6
:10430000FFF709FF07A82146FFF722FF204603F029
:1043100004FBC6E705A8FFF7EFFE03689945E4D95B
:10432000A4B20121204603F0BBFA05A8FFF7DAFE8C
:104330000146204603F008FBD7E720468DF82840C9
:1043400000F0C2FC03460AA823B1154A934201D0EB
:104350009847CAE700F0B4FCC7E705A8FFF7CCFE12
:10436000059B8DF81C405D1B751B2046CDE90A3569
:104370000C9500F0B3FC03460AA907A823B1094A2B
:10438000934201D09847B0E700F09BFCADE700BF37
:10439000B4870B00B7870B00BF870B00C2870B00E9
:1043A000C14C0B00C34C0B00BB870B002DE9F04147
:1043B0008CB004AF044605220068391D02F0D1FB21
:1043C00098B3052804D000202037BD46BDE8F08111
:1043D000B7F805305BBA9AB2A7F80530B7F80730DE
:1043E0005BBA1FFA83F8A7F80730002AEBD03B79B5
:1043F00023BB00F063FC0246E060607FB7F8073043
:10440000C0B9B7F80510012914D1092B0FD0C82B5A
:1044100001D0042BD8D1012562612046657700F0D8
:104420007FFAFFF753FE00F04DFC0120CCE7032399
:104430006377C9E7581F18BF0120C5E7B8F5806F3B
:1044400003D92046FFF7A8FEEFE708F108036E4600
:10445000DB08A6EBC3039D4604AD2068424629460F
:1044600002F07FFB80454FF000007FD1B7F80730A6
:10447000E85400F023FC3B79E060142B00F0A680A8
:1044800048D80F2B00F0A28007D8022B48D0062B6B
:1044900051D02046FFF780FE58E0112BF9D10023C0
:1044A0003B70B7F807302B449D42C7E903534DD208
:1044B00007F10C00D5F80080FFF71EFEFB68B7F887
:1044C00007105D1B4D1BC7E905357B68FD61C3F314
:1044D0000F236383644B984500F0BF8000F28C800B
:1044E000A3F57F236FF400721344984500F09D807C
:1044F00079D8A3F50033063B984500F09C8003F57E
:104500000033033398456BD107F11401384600F0AE
:10451000D8FB65E0292B1BD0372B17D01D2BB8D12A
:10452000637F43B901236377204600F0F9F9FFF771
:10453000CDFD00F0C7FB0023C821B7F8052000918E
:10454000CDE901331946204600F03CF901200DE089
:10455000A3681BB9402001F0DBFFA060B7F807801B
:10456000A8444545C7E9055802D30020B5462BE7C6
:1045700029464022A06803F0FFFFA368002583F8C6
:104580003F5007F11400FFF7B7FD036898451BD9AA
:10459000786920B1BB69984214D203F08BFF85B2D1
:1045A000206802F0F1FF2368A2685A631D87002388
:1045B000637700F083FBA0F59C500838C4E9030042
:1045C0006061C3E72846EAE75025E9E77B68B7F86A
:1045D0000720C3F30F23638329462046FFF7E6FD38
:1045E00000236383B2E7214B9845F9D107F1140109
:1045F000384600F066FBF3E71D4B984521D003F1E8
:104600009F6303F5003303F5807398451FD003F1D2
:104610006E4303F5302303F586739845E0D107F127
:104620001401384600F04DFBDAE707F11401384673
:1046300000F047FBD4E707F11401384600F041FBD6
:10464000CEE707F11401384600F03BFBC8E707F15D
:104650001401384600F035FBC2E707F11401384673
:1046600000F02FFBBCE700BF766673006462670052
:1046700061636F6E2DE9F04104468CB00D46FFF783
:1046800025FD637F022B1ED0237F628B0133DBB2BB
:104690002377AAB9022B13D8206802F03DFEA8B1F7
:1046A00025B9206802F016FF00280FDD2046FFF72D
:1046B0007DFE0028F5D1206802F066FF00F002FBC5
:1046C000237F013B23770CB0BDE8F08100F0F6FAC0
:1046D0000546206802F020FE677F012F064624D1A0
:1046E00020B965612046FFF757FDE9E7E3684FF21F
:1046F0001862EB1A9342F5D84AF6C872934203D86F
:104700002369EB1A9342DBD9636941F27072EB1AA9
:104710009342D5D90023CDE9013300931A460621EF
:10472000204600F04FF86561CAE7002FC8D16369E1
:10473000EB1A40B141F270729342C1D9206802F085
:1047400023FF6777BCE741F288329342B8D92068EB
:1047500002F01AFFD4F800C0DCF834E0BCF838806E
:10476000BEF1000F1BD0334642467146604602F050
:1047700055FD0128D7D16368059301251846258387
:1047800003F0F2FE0022CDE90122059B00902A46AB
:104790001D21204600F016F82369636190E7084B5D
:1047A00006930CF120070FCF07AE0FC63B6833709E
:1047B0004246734606A9604602F010FED9E700BFE4
:1047C00014980B002DE9F04F83B000AF0446006849
:1047D0003D6B884616469946EB4602F09DFD002843
:1047E0007FD0B8F11D0F04D84C4B23FA08F3DB0738
:1047F00002D4637F012B74D146B9668B36B9238B03
:1048000001339BB2002B71D02383268BA8F10C03BC
:10481000082B16D8D4E90323934238BF134603F17B
:10482000420A00F04BFAAAEB0000002860DB0021EE
:104830002046FFF71FFF00F041FAAAEB0000002816
:10484000F5DAB9F1000F5AD06B1D7A6B002ABA6BFA
:1048500008BF002203EB020A0AF1070323F0070353
:10486000ADEB030DBB6BC7F804D0EA18C2F3072306
:1048700076BA43EA02238DF80080ADF80160ADF806
:104880000330B9F1000F3CD0002D3AD02A464946FA
:104890000DF1050003F012FE681D7B6B3BB1BB6B95
:1048A0002BB11A467B68796B184403F007FE00258C
:1048B00055452AD2AAEB05027B682068B2F5806FC5
:1048C00028BF4FF48062591902F0FDFB0646002014
:1048D00000F0F2F9BEB9206802F056FE667700F0EB
:1048E000F1F90C37DD46BD46BDE8F08F01238BE7BB
:1048F000217F0029A5D12046FFF7BCFEA1E70523B3
:10490000A3E70520C9E73544D2E703D02046FFF7E7
:1049100043FCE6E700F0D2F92061E2E74500002021
:1049200000B595B004AB002201934F23009302928F
:10493000034B1121FFF746FF15B05DF804FB00BFE4
:1049400018880B0030B5ADF2244D08AB00240546A5
:10495000059305A84FF480630968CDE90643FFF786
:10496000DAFB069B013B0093CDE90144059B2246FF
:104970000E212846FFF726FF0DF2244D30BD000022
:10498000F0B5ADF2244D08AB002405460F46059363
:1049900005A84FF480630E491646CDE90643FFF79C
:1049A000BAFB394605A8FFF7D3FB314605A8FFF748
:1049B000CFFB069B013B0093CDE90144059B2246BA
:1049C00014212846FFF7FEFE0DF2244DF0BD00BF76
:1049D000C5870B00000000002DE9F04300218DB0D9
:1049E0006348644CFFF746FE624800F016FE0F2055
:1049F00002F093FFC11703F0E3FA57A3D3E90023B2
:104A000003F014FB56A3D3E9002303F039FC5A4BFF
:104A1000002203F053F9594B002203F007FB52A385
:104A2000D3E9002306460F4603F000FB544B002257
:104A300003F046F980464F48894600F007FE0028FB
:104A400042D0204600F0D8FF4E49204602F01BF825
:104A5000204601F03FFA4C4904A801F032FF3946E4
:104A6000304603F0F5FC0A220146684601F069FF72
:104A7000694604A801F08FFF444901F098FF4946B8
:104A80000546404603F0E4FC0A22014608A801F06E
:104A900058FF08A9284601F07EFF3D4901F087FF35
:104AA00001463348FFF74EFF08A801F0BFFE6846F5
:104AB00001F0BCFE04A801F0B9FE40F6B83002F0E7
:104AC00077F8204600F098FF3946304603F0C0FCE6
:104AD0000021024606462648FFF752FF4946404657
:104AE00003F0B6FC0121054602462148FFF748FFC6
:104AF0000A223146684601F024FF694604A801F005
:104B000003FF224904A801F052FF0A220646294663
:104B100008A801F016FF08A9304601F03CFF1D4926
:104B200001F045FF0168134801F0ADFF08A801F04E
:104B30007DFE04A801F07AFE684601F077FE0D487C
:104B400001F0C8F90B4800F057FF002323610DB0B6
:104B5000BDE8F083AFF300806666666666660A406D
:104B60000000000000FEAF40CDCCCCCCCCCCFC3F54
:104B7000ECE5032048E603200000E03F0000594038
:104B800000004040C8870B00D2870B00E6870B006F
:104B9000EA870B00ED870B002DE9F04194B0A223CA
:104BA000AC22A721009302A8EA2302F03BF903AC50
:104BB00040F6B83000F080F80FCC09AF0FC7284D91
:104BC00023683B70274B6B6000F078F8A0F59C5091
:104BD00008380DF1240CC5E903006861BCE80F003A
:104BE0000FAE0FC62C683B6833700FAF41F6907361
:104BF00023870FCF4FF00008C4F8348020340FC44F
:104C00003368237044F24F66286802F0BDFC85F8D3
:104C10001D8000F053F804466B7F012B0CD000F090
:104C20004DF8001BB04204D800212846FFF722FDB2
:104C3000F2E76B7F012BE7D10B4C00210F2002F034
:104C40002FFE204600F0C0FC4FF0011363610121EC
:104C5000204600F06AFC0023236114B0BDE8F08117
:104C6000ECE50320EF870B0048E6032038B50F4D35
:104C7000284602F0D3FC05F11C0002F08FF80C4B23
:104C80000C480024C3E90054C3E90244C3E90444C6
:104C90009C619C8307216C632C8700F067FC214694
:104CA0000120BDE8384001F0A7BB00BF0CE603209F
:104CB000ECE5032048E6032001F07ABF01F00CBACE
:104CC000704770477047000003065ABF024B53F805
:104CD00020000020704700BF6C880B0003065ABFFD
:104CE000024B53F820000020704700BF6C8A0B0075
:104CF000704710B510210446FFF7D1F9204610BDCA
:104D00000EB403B503AB002153F8042B019301F05B
:104D1000E2FE02B05DF804EB03B0704773B50446E1
:104D200008462279A36832B1A3B90B4902B0BDE8A5
:104D3000704001F095BE094A267B094D0949647B04
:104D4000012E18BF2946CDE900140749FFF7D8FF07
:104D500002B070BD054AEFE77D8C0B00E9870B00C0
:104D6000798C0B00758C0B00938C0B006C8C0B00FA
:104D70002DE9F04F85B01F46BDF93880BDF83C30B5
:104D8000A8EB0209A7EB010AB9F1000FB8BFC9F1FE
:104D90000009BAF1000FB8BFCAF1000AD145834635
:104DA0000C46154604DD3A462C4647460D469046CD
:104DB000BC4205DD2A464546904622463C461746FB
:104DC0003E1BB2B20092A8EB050282EAE271A1EBAF
:104DD000E271C6F3C03202FA86F64545B4BF01223D
:104DE0004FF0FF32019176100292BC421CDCDBF8DE
:104DF00000200393D145D2F81880C7BF2946224628
:104E00002A4621465846C047019A039BB61AB1B2BA
:104E100036B2002E05DA029A1544009A56182DB2C1
:104E200036B2013424B2E0E705B0BDE8F08F704738
:104E300010B404682469A4465DF8044B604730B49C
:104E40000468BDF808500295A46BA44630BC6047C6
:104E500030B40468BDF808500295E46BA44630BC39
:104E6000604770B4BDF90C50BDF810600468CDE91E
:104E70000356246CA44670BC60472DE9F3411C46E0
:104E80000368BDF820805B6905461646013C344442
:104E90000F4624B298472B68CDF8048000949C6A92
:104EA00028463B4632463946A0472B68DB6A2846EF
:104EB00002B0BDE8F04118472DE9F3411D460368F3
:104EC000BDF820805B69044617460E469847CDE939
:104ED000007822686B1E3344956A20461BB23A461E
:104EE0003146A8472368DB6A204602B0BDE8F0419E
:104EF00018472DE9F3471E460368BDF928905B6902
:104F0000BDF82C800C460546174698472644B44207
:104F10002B680BDACDF80080D3F820A021464B4651
:104F20003A4628460134D04724B2F0E7DB6A2846E7
:104F300002B0BDE8F047184713B502680191B0F917
:104F40000E100091146CB0F90C3000221146A047ED
:104F500002B010BD2DE9F74399421646BDF92870FD
:104F6000BDF82C90026880460D461C4613D1BE4207
:104F7000C8BF3346CDF82890C4BF3E461F467B1CB1
:104F8000946B9B1B1BB2324629464046A44603B095
:104F9000BDE8F0436047BE420AD19942C2BF0B460A
:104FA00025461C46631CCDF82890D46B5B1BE9E7B3
:104FB00053699847CDE90079D8F8003040469F6A98
:104FC000324623462946B847D8F80030DB6A4046C7
:104FD00003B0BDE8F04318472DE9F3471D460368C9
:104FE000BDF82C805B69BDF9289004460F46164633
:104FF00098472368CDF80080D3F824A032462B468A
:1050000039462046D0472368CDF8008009F1FF32A9
:105010003244D3F824A039462B46204612B2D0475A
:105020002368CDF80080D3F820A032464B4639469D
:105030002046D0476B1ED9192368CDF800801D6A21
:1050400020464B46324609B2A8472368DB6A204611
:1050500002B0BDE8F0471847704701F00303B0F90C
:105060000A208376C907B0F9083059BF8381C2810D
:105070008281C3817047000030B54281C281074AF6
:10508000074D0181002481814FF0FF31C0E90512F5
:105090004460056004610477046230BD01010001D1
:1050A000B8910B002DE9F04F89B0CDE902120268EA
:1050B000BDF948800493BDF94C3052690593BDF8A1
:1050C00050A00446904718F107024FF0000648BF71
:1050D00008F10E024FEAE20B01963546039B019A56
:1050E000BDF904109A18059B8B4212B227DD049B70
:1050F00033444FF0000906930FFA89F080451FFAF8
:1051000089F117DD4F0705BF069BC0106D001D5CC0
:1051100018BFEDB22B060AD5029B206807921944EE
:10512000836909B21F4620465346B847079A09F1DA
:105130000109E1E7019B013301935E44CEE7236857
:10514000DB6A204609B0BDE8F04F18472DE9F04F63
:105150002DED028B91B01646026ABDF874809DF861
:1051600078509DF87C4003911F46BDF87030049341
:105170008346002A40F0C580B0F90C308B4240F3E2
:105180004C81B0F90E30B34240F34781062313FB44
:105190000513002B40F3418106EBC403002B40F3C1
:1051A0003C81037F1BB9AF2F84BF0137FFB2DBF80F
:1051B000003058465B699847052209920022059203
:1051C000984A07EB8703D3180C93B3B20693059A5A
:1051D0000C9B9B5C0793ABB20B93BDF80C30089310
:1051E000039B02FB05F919FA83F90FFA89F308EE1C
:1051F000103A08230A93039B02EB030A4FF00009BD
:105200000FFA8AFA079ADBF80030D20752D5012D3F
:105210001FFA89F23ED1012C3CD19B6906991F46A9
:10522000049B0A4412B251465846B84709F101039B
:105230004FFA83F9079B5B0807930A9B013B13F026
:10524000FF030A93DED1059F01377BB20593099BCB
:10525000013B13F0FF030993B9D1049B43450FD0E1
:10526000012DDBF800303BD1012C39D10899CDF864
:10527000008005311C6A3246082309B25846A0470F
:10528000DBF80030DB6A584611B0BDEC028BBDE89C
:10529000F04F1847069914FB02F20A440499019151
:1052A0000094DB6918EE101A1F4612B22B465846BE
:1052B000B847BBE7049A4245B8D0012D1FFA89F2DE
:1052C00007D1012C05D19B6906991F460A44434624
:1052D000A8E70699CDF8048014FB02F20A44DFE740
:1052E0000B9ACDF8048002EB8201089AE4000A448C
:1052F00011460094DC6932462B4609B25846A04755
:10530000BEE7137A516812680B92FF1AFFB201EBE5
:10531000C70331F8372006929A780992DA780C920E
:10532000012D93F9052093F906A00A9201D8012CCA
:1053300057D9BDF9283008930FFA8AF30793DBF8A1
:10534000003058465B699847B3B24FF000080E939F
:105350001AFA86F3C14647460F930C9B9F428FD2A1
:10536000079B0E9A3B4403FB0423002205920F9AED
:105370001BB202EB070A08EE103A0FFA8AFA43460C
:10538000099A0599914241D25A1CD2B25B070D92FB
:1053900007D1069B06990B9A01339BB212F8019034
:1053A000069319F0800F12D0012DDBF80030BDF804
:1053B0000C101AD1012C18D10A9A9B691144059A34
:1053C00011441E465246049B09B25846B047059EFA
:1053D0000136F3B24FEA490905935FFA89F90D9B4B
:1053E000CEE70023CDE90733A9E70598089A0244E0
:1053F00002FB0511049ACDE90042DB6918EE102A80
:105400001E4609B22B465846B047E0E7099B0137D4
:1054100098445FFA88F8FFB29FE711B0BDEC028BA9
:10542000BDE8F08FB08C0B00F0B5026A85B0044681
:105430000B46002A34D10A2908D1438A0282427ECF
:1054400003EBC2036382012005B0F0BD0D29FAD041
:10545000E17E007E657E71B1B4F91060062111FB1A
:105460000061B4F90C60B142C1BFB4F912102282DC
:1054700001EBC5026282E28A0192A28A0092CDE922
:105480000205B4F91220B4F910102046FFF75EFEB1
:10549000237E228A03EB430302EB43032382D2E7FA
:1054A0000A2907D100230382417E927A438A01FBB5
:1054B0000233C7E70D29C6D0157AA942C3D3517A62
:1054C0009942C0D351685D1BEDB201EBC505A878C8
:1054D00028B3E97819B3E17E267E677E91B195F90C
:1054E00005100844B4F9101006FB0011B4F90C00C3
:1054F000814207DD00202082B4F91210927A02FB6B
:1055000007126282E28A0192A28A0092CDE90267C2
:10551000B4F91220B4F910102046FFF717FE2979CC
:10552000227E238A01FB0233B8E7012938BF01211B
:10553000017641767047000010B5064B03600446C3
:10554000006D08B100F0D8FD204600F0E3F82046D9
:1055500010BD00BF10920B0010B50446FFF7ECFF22
:1055600020467021FEF79BFD204610BD30B585B06A
:1055700004460D4602F066FA104A1149CDE90121B0
:105580004FF0FF328021034600922046202200F097
:1055900039F90C4B23600023C4E9143504F1580099
:1055A00000F05EF804F1600000F05AF804F16800C1
:1055B00000F056F8204605B030BD00BF801A060046
:1055C000A086010010920B0013B50446503000F085
:1055D0008BFD636DD90705D50222042104F1580023
:1055E00000F052F8636D9A0705D50022032104F1FB
:1055F000600000F049F8636D5B0705D50222114693
:1056000004F1680000F040F8012300933C220221DD
:10561000204600F0FFF902B010BD10B5436DD90768
:10562000044602D5583000F03CF8636D9A0703D564
:1056300004F1600000F035F8636D5B0705D504F1F7
:105640006800BDE8104000F02CB810BD436D024664
:1056500013F0010003D002F1580000F052B8704777
:1056600000210A22C0E900127047002310B5044649
:10567000C171837188B202F03DF908B10323A371AF
:1056800000F02AFD206010BD38B50C4605461146D5
:10569000A0B202F005F921462846BDE83840FFF7E0
:1056A000E4BF38B50446C07902F024F9A579003882
:1056B00025F0080318BF0120C5F340058542A371FA
:1056C0000AD000F009FDA379206083F00203A371E2
:1056D000A079C0F3C00038BD00F0FEFC2368C01AFA
:1056E000A3889842F4D3A37903F00103AB42EFD02F
:1056F00000F0F2FCA379206083F0010343F008037B
:10570000E5E7807900F00900A0F10803584258410C
:105710007047000010B5044B03600446C06A08B12E
:1057200000F0FEFE204610BD1C970B0010B504468D
:10573000FFF7F0FF20465021FEF7B1FC204610BDD8
:10574000002910B54BDBB0F90C408C4247DD002A34
:1057500045DBB0F90E40944241DD847E022C1FD01F
:10576000032C26D0012C04D10489D24314440A46C8
:1057700021B2012B23D0022B32D083BB002A134647
:105780000489C06AB8BFD31DDB1013FB041102F0FB
:10579000070201239340425C22EA030242541EE0C6
:1057A0000489013C611A4489D243224409B212B2ED
:1057B000DFE74489013C641A114622B2D9E7002A86
:1057C00004891346B8BFD31DDB1013FB0411C36A51
:1057D00002F0070001228240585C02435A5410BD77
:1057E000002A13460489C06AB8BFD31DDB1013FB1F
:1057F000041102F00702012303FA02F2435C5A404B
:10580000CCE7000070B504461D460026FFF734FCC7
:10581000114B2360666215B902F014F90546FF23A7
:1058200084F8333084F836309DF9103084F83730FE
:105830000A4BA363012384F83C30059BA3644FF615
:10584000FF72069BA286C4E90A562664A4F8446047
:10585000E364204670BD00BF1C970B0068920B00EC
:10586000F8B50446806A0D4690B194F9301001F005
:1058700013FCA06A036800219B689847A06A03682C
:1058800029469B689847A06ABDE8F84001F00BBC28
:1058900094F93530014698B202F013F8606A20B1ED
:1058A0002946BDE8F84000F05DBF0826802794F93E
:1058B000330005EA070180B202F003F894F93400DE
:1058C000012180B201F0FDFF94F93400002180B283
:1058D00001F0F7FF013E4FEA5707E8D1F8BD38B5B0
:1058E0000446806A0D4680B1A16C01F0C7FB002D13
:1058F000204614BFA721A621FFF7B2FFA06A88B1F6
:10590000E16CBDE8384001F0B9BB606A18B104F140
:10591000380100F0B9FE94F93600002180B201F0A0
:10592000D0FFE4E794F93600012180B201F0C9FF0D
:10593000606A18B1BDE8384000F08CBE38BD2DE972
:10594000F8430446806A0D468F1840B394F930102E
:1059500001F0A2FBA06A036800219B68984701261A
:10596000AF42A06A17D01F2E0CD901F09CFB94F90E
:105970003010A06A01F090FBA06A036800219B68C8
:1059800098470126A06A15F8011B036801369B6839
:105990009847F6B2E4E7BDE8F84301F084BB94F918
:1059A0003530014698B201F08CFFBD4222D0606ACA
:1059B00015F8019B18B1494600F0D4FEF5E708261A
:1059C0004FF0800894F9330009EA080180B201F031
:1059D00078FF94F93400012180B201F072FF94F94C
:1059E0003400002180B201F06CFF013E4FEA5808FC
:1059F000E8D1DAE7BDE8F883B0F90A30DA1D48BF2C
:105A000003F10E02B0F90830C06AD2105A430021E7
:105A100002F062BD2DE9FF411E46C36A9DF8288051
:105A200004460F461546C3B12046FFF7E5FFB4F91B
:105A30000A00B4F90810202821DC20230122203894
:105A4000CDE9013200EBD07073237339009301EB81
:105A5000D171894B40F34F0221E0B0F90A30D81DD3
:105A600048BF03F10E00B4F90830C010584300F0ED
:105A70004FFDE0620028D7D104B0BDE8F081403886
:105A8000C0F3C03202FA80F240230120CDE9013098
:105A9000522352390093794B01EBD17152102046B9
:105AA00041F34F01FFF7FEFAA06A84F83170002835
:105AB00078D0002D74D1B4F90A30202B0CBF3C25CE
:105AC0003D2584F83050B8F1000F01D001F0DAFA2A
:105AD000FEB194F9370000281BDB012180B201F0F0
:105AE000DFFE94F93700012180B201F0EAFE0120C7
:105AF00001F05EF894F93700002180B201F0E1FE78
:105B00000A2001F055F894F93700012180B201F024
:105B1000D8FEA06A002874D0A16C01F0AFFA04226C
:105B200057492046FFF70BFF61890139C9B220466A
:105B3000FFF796FE534904222046FFF700FF94F931
:105B40003130012B0CBF102114212046FFF788FEB5
:105B500004224D492046FFF7F2FEA3684B4A9342C8
:105B60005CD14B4904222046FFF7E9FED9212046AB
:105B7000FFF776FE94F93130012B0CBF2221F12181
:105B80002046FFF76DFE204642490622FFF7D7FE6A
:105B9000A06A002863D0E16C01F070FA01206BE785
:105BA0006DB28EE794F93500012180B201F078FEE4
:105BB00094F93600012180B201F072FE94F93600AA
:105BC000012180B201F07DFE656A3DB1B8F1000FA0
:105BD0003FF47EAF284600F029FD79E794F93300C1
:105BE000012180B201F05CFE94F93400012180B201
:105BF00001F056FE94F93400294680B201F061FEAE
:105C000066E7606A18B104F1380100F03DFD94F9CF
:105C10003600002180B201F054FE80E71E4A934214
:105C20000ED11E4903222046FFF789FE94F9313038
:105C3000012B0CBF9F21CF212046FFF711FE95E7D6
:105C4000174A934292D1174903222046FFF777FE65
:105C500094F93130012B0CBF1021AF21ECE794F9FE
:105C60003600012180B201F02CFE606A002895D038
:105C700000F0F0FC92E700BF34950B0074920B002B
:105C80007C970B0080970B0084970B00800020000E
:105C90008E970B0088970B008000400092970B00B6
:105CA0006000100095970B0070B5002ABDF81050E9
:105CB0003DDBB0F90A40944239DD0029BEBF5B18D4
:105CC0001BB20021B0F90840CE18A642C4BF631A27
:105CD0001BB2002B2BDDC06AD61014FB0611014449
:105CE00002F0070001228240012DD2B216D0022D0F
:105CF0000BD0E5B9D243D2B20B44994217D011F878
:105D0000010B104001F8010CF7E70B4499420ED04B
:105D100011F8010B504001F8010CF7E70B449942D0
:105D200005D011F8010B104301F8010CF7E770BD25
:105D3000F0B50029BDF8145076DBB0F90860B14227
:105D400072DA002ABEBF9B181BB20022B0F90A40CB
:105D5000D718A742C4BFA31A1BB2002B64DDC2F33D
:105D6000C404C76A16FB041612F00702DBB207EB85
:105D7000060423D0C2F10802D2B22D4993423CBF9F
:105D80004FF0FF0CA2EB030E895C3CBF4CFA0EFCFB
:105D90000CEA0101012D07D0022D2ED04DB917F8C4
:105DA00006C02CEA010103E017F806C041EA0C0125
:105DB000B955934238D3B0F908100C449A1AD2B2AC
:105DC000072A0ED9022D1DD113462178C94321700F
:105DD000083BB0F90810DBB2072B0C44F5D802F0F1
:105DE00007020AB3134B012D9B5C1AD0022D1CD065
:105DF000D5B9227822EA030315E017F806C081EA34
:105E00000C01D5E7291E18BF01214942C9B213462A
:105E10002170083BB0F90860DBB2072B3444F7D897
:105E2000DDE7227813432370F0BD22785340FAE770
:105E30006C970B0074970B0070B41446827EBDF80B
:105E40000C60022A0DD0032A18D0012A11D1028930
:105E5000E443144424B203960A46214670BCFFF77B
:105E600067BF42890589E44319441444691A24B27E
:105E700009B20396224670BCFFF716BF4589194444
:105E8000691A09B2E7E730B41446827EBDF80850BB
:105E9000022A0DD0032A18D0012A11D1E218048950
:105EA000A41A24B202950A46214630BCFFF7FCBE74
:105EB0000289C9431144E2184489A41A09B224B2E0
:105EC0000295224630BCFFF733BF4289C9431144D3
:105ED00009B2E7E72DE9F8430446806A002842D07A
:105EE000A16C01F0CBF8474905222046FFF727FDBA
:105EF000218901392046C9B2FFF7B2FCB4F90A3052
:105F0000DE1D48BF03F10E06D4E90A052389F61009
:105F100013FB06F615FA86F600283AD094F93010ED
:105F200001F0BAF8A06A036840219B6898470127EE
:105F3000B542A06A24D01F2F0CD901F0B4F894F90F
:105F40003010A06A01F0A8F8A06A036840219B689D
:105F500098470127A06A15F8011B036801379B6861
:105F60009847FFB2E4E7606A18B104F1380100F025
:105F70008BFB94F93600002180B201F0A2FCB2E75D
:105F800001F091F8A06A78B3E16CBDE8F84301F044
:105F900075B894F93500012180B201F092FCAE424F
:105FA000F0D0606A15F8019B18B1494600F0DAFBA1
:105FB000F5E708274FF0800894F9330009EA080153
:105FC00080B201F07EFC94F93400012180B201F02E
:105FD00078FC94F93400002180B201F072FC013F9A
:105FE0004FEA5808E8D1DAE794F93600012180B287
:105FF00001F067FC606A18B1BDE8F84300F02ABB05
:10600000BDE8F88398970B0008B5024B1B689B68A6
:10601000019308BD6802030008B5024B1B68DB68EA
:10602000019308BD6802030008B5024B1B685B685A
:10603000019308BD2C02030008B5024B1B689B6846
:10604000019308BD2C02030008B5024B1B68DB68F6
:10605000019308BD2C02030008B5024B1B681B69A5
:10606000019308BD2C02030008B5024B1B685B6955
:10607000019308BD2C02030008B5024B1B689B6A04
:10608000019308BD2C02030008B5024B1B681B6B73
:10609000019308BD2C02030008B5024B1B689B6FDF
:1060A000019308BD2C02030008B5024B1B685B6915
:1060B000019308BD6C02030008B5024B1B685B68C6
:1060C000019308BD1802030008B5024B1B68DB688A
:1060D000019308BD1802030008B5024B1B685B69F9
:1060E000019308BD1802030008B5024B1B681B6B27
:1060F000019308BD4802030008B5024B1B685B6BA7
:10610000019308BD4802030008B5024B1B685B6C95
:10611000019308BD4802030008B5024B1B685B6988
:10612000019308BD6402030008B5024B1B681B6A9B
:10613000019308BD6402030008B5024B1B689B6A0B
:10614000019308BD6402030008B5024B1B68DB68BD
:10615000019308BD3C02030008B5024B1B681B6994
:10616000019308BD3C02030008B5024B1B685B6944
:10617000019308BD3C02030008B5024B1B689B69F4
:10618000019308BD3C02030008B5024B1B68DB69A4
:10619000019308BD3C02030008B5024B1B681B6A53
:1061A000019308BD3C02030008B5024B1B689B6AC3
:1061B000019308BD3C02030008B5024B1B681B6C31
:1061C000019308BD3C02030008B5024B1B681B6825
:1061D000019308BD2802030008B5024B1B68DB6869
:1061E000019308BD2802030008B5024B1B689B6998
:1061F000019308BD2802030008B5024B1B68DB6948
:10620000019308BD2802030008B5024B1B681B6AF6
:10621000019308BD2802030008B5024B1B685B6AA6
:10622000019308BD2802030008B5024B1B689B6A56
:10623000019308BD2802030008B5024B1B68DB6A06
:10624000019308BD2802030008B5024B1B681B6BB5
:10625000019308BD2802030008B5024B1B685B6B65
:10626000019308BD2802030008B5024B1B681B6C94
:10627000019308BD2802030008B5024B1B689B6907
:10628000019308BD3802030008B5024B1B68DB69A7
:10629000019308BD3802030008B5024B1B681B6A56
:1062A000019308BD3802030008B5024B1B689B6AC6
:1062B000019308BD3802030008B5024B1B681B6B35
:1062C000019308BD3802030008B5024B1B689B6BA5
:1062D000019308BD3802030008B5024B1B681B6818
:1062E000019308BD3002030008B5024B1B685B69CF
:1062F000019308BD3002030008B5024B1B68DB693F
:10630000019308BD3002030008B5024B1B681B6AED
:10631000019308BD3002030008B5024B1B685B6A9D
:10632000019308BD3002030008B5024B1B68DB6B0C
:10633000019308BD3002030008B5024B1B681B6CBB
:10634000019308BD3002030008B5024B1B685B6C6B
:10635000019308BD3002030008B5024B1B681B689F
:10636000019308BD4C02030008B5024B1B681B6972
:10637000019308BD4C02030008B5024B1B685B6922
:10638000019308BD4C02030008B5024B1B689B69D2
:10639000019308BD4C02030008B5024B1B68DB6982
:1063A000019308BD4C02030008B5024B1B681B6A31
:1063B000019308BD4C02030008B5024B1B685B6BE0
:1063C000019308BD6002030008B5024B1B681B6DFA
:1063D000019308BD6002030008B5024B1B685B68AF
:1063E000019308BD2002030008B5024B1B685B69DE
:1063F000019308BD2002030008B5024B1B68DB6A4D
:10640000019308BD2002030008B5034B1B68D3F8B5
:106410008830019308BD00002002030008B5034B3B
:106420001B68D3F89430019308BD000020020300DC
:1064300008B5024B1B685B68019308BD400203006E
:1064400008B5024B1B689B68019308BD400203001E
:1064500008B5024B1B68DB68019308BD40020300CE
:1064600008B5024B1B681B69019308BD400203007D
:1064700008B5024B1B685B69019308BD400203002D
:1064800008B5024B1B689B69019308BD40020300DD
:1064900008B5024B1B68DB69019308BD400203008D
:1064A00008B5024B1B681B6A019308BD400203003C
:1064B00008B5024B1B681B6B019308BD400203002B
:1064C00008B5024B1B685B6B019308BD40020300DB
:1064D00008B5024B1B681B6C019308BD400203000A
:1064E00008B5024B1B685B6C019308BD40020300BA
:1064F00008B5024B1B689B68019308BD440203006A
:1065000008B5024B1B68DB6B019308BD4402030016
:1065100008B5024B1B681B68019308BD1C020300F1
:1065200008B5024B1B685B68019308BD1C020300A1
:1065300008B5024B1B689B68019308BD1C02030051
:1065400008B5024B1B68DB69019308BD1C02030000
:1065500008B5024B1B685B6A019308BD1C0203006F
:1065600008B5024B1B68DB6B019308BD1C020300DE
:1065700008B5024B1B681B6C019308BD1C0203008D
:1065800008B5024B1B685B6C019308BD1C0203003D
:10659000002240681146FFF783BF00224068114681
:1065A000FFF78EBF40680022FFF782BF40680022DD
:1065B00081F00101FFF76CBF002340681A461946BD
:1065C000FFF75EBF002340681A461946FFF750BF29
:1065D000002240681146FFF743BF00224068114681
:1065E000FFF72EBF406800220221FFF731BF0023D2
:1065F00040681A46FFF71CBF024B03225A60024A4A
:106600001A607047C4E60320A8970B000021FFF72B
:106610009BBE0021FFF790BE10B5044608462170CE
:10662000FFF76AFE00236360204610BD13B50446E1
:106630000078FFF7EEFF58B9207801904FF6FF7110
:10664000FFF74AFE019802B0BDE81040FFF7DEBF39
:1066500002B010BD0078FFF7D9BF0000400830B588
:106660001860002418688842E5B206D90134082C65
:1066700002D040081860F5E70725024B5B5D1370F8
:1066800030BD00BFDC970B002DE9F04306468FB00C
:1066900000780C46FFF7BDFF00281BDB357814227D
:1066A000002109A801F018FF0B23002209A92846A0
:1066B000ADF82430FFF730FE9DF82D3013B19DF872
:1066C0002C5055B10027B946B846012523795DB154
:1066D000C3B100200FB0BDE8F083DDF830809DF835
:1066E00034909DF83570F1E7002B35D1A368434510
:1066F00008D18DF820908DF82170BDF82020A38955
:106700009A42E6D00023A1688DF80F300A9804ABB6
:106710000DF10F02FFF7A2FF217985B989B9A368AE
:1067200043450ED38DF820908DF82170BDF82020C0
:10673000A3899A4205D1049B434502D1C9E70029A8
:10674000F9D100230193637B00939DF80F20237BF5
:106750003078FFF7E9FDBCE7CDE900552B462A4626
:106760000121F5E708B50078FFF7BEFDC0B208BD0E
:10677000054B02221A60054B054A9A600020C3E9C6
:106780000000FFF729BE00BFD8E60320CCE60320B7
:106790000000FFFF10B5044601F0E6FE01382318A3
:1067A0002046834206D90278197800F8011B03F8C5
:1067B0000129F6E710BD70B50C46911E22291DD89F
:1067C000254630B9234430229D4210D205F8012BD2
:1067D000FAE7B0FBF2F602FB1600C1B2092894BF3B
:1067E00030315731C9B205F8011B3046E9E70023C3
:1067F00020462B70FFF7CEFF204670BD0020FCE73F
:1068000038B5031E0C4615460EDAB3F1004F4FF0B3
:106810002D0214BF5842184601230A702A46194413
:10682000FFF7C9FF204638BD0123F9E710B504463C
:106830000068FFF775FE204610BD10B504460068DD
:1068400008B1FFF76DFE0023C4E90133236010BDDA
:1068500038B504460D4600680131FFF769FE10B1F6
:10686000C4E90005012038BD10B50368044623B112
:1068700043688B4201D3012010BD2046FFF7E8FF9B
:106880000028F9D0A368002BF5D122681370F2E735
:1068900037B50D46114601920446FFF7E5FF019A10
:1068A00028B92046FFF7C9FF204603B030BDA260DB
:1068B0002946206801F002FE2268A3680021D15415
:1068C000F2E7002313B5C0E9003304468360037385
:1068D00041B10846019101F047FE01990246204668
:1068E000FFF7D6FF204602B010BD884210B504461F
:1068F00005D00B682BB18A681946FFF7C9FF2046FF
:1069000010BDFFF79AFFFAE710B500230446C0E96F
:10691000003383600373FFF7E8FF204610BD13B513
:10692000044659B10846019101F01EFE0199024644
:106930002046FFF7ADFF204602B010BDFFF77DFFF8
:10694000F9E710B504468AB00023C4E90033A36018
:106950002373084601A9FFF753FF01A92046FFF75B
:10696000DEFF20460AB010BD70B505460E4609B9D7
:10697000002070BD6AB1846814442146FFF774FF9B
:106980000028F5D02868AB683146184401F0E4FDD2
:10699000AC600120EDE710B58A6809680446FFF78E
:1069A000E3FF10B92046FFF748FF204610BD13B59E
:1069B000044629B92046FFF740FF204602B010BD2B
:1069C0000846019101F0D0FD019902462046FFF7EB
:1069D000CBFF0028EED0F0E710B54368013B04463A
:1069E000436063B903689B689847A368013BA36051
:1069F0002BB923682046DB68BDE81040184710BD5E
:106A0000024800230360FFF77FBB00BFDCE60320E2
:106A1000F8B506460D468F180024BD420CD03368E9
:106A200015F8011B9B6830469847031E01DB1C4488
:106A3000F3E7002C08BF1C462046F8BD13B50446FA
:106A4000084659B1019101F08FFD23680199DB6877
:106A50000246204602B0BDE81040184702B010BD03
:106A600008B5FFF7EBFF08BD03689B68184738B50A
:106A70000D210546FFF7F8FF0A2104462846FFF7D7
:106A8000F3FF204438BD38B50546FFF7D7FF04466D
:106A90002846FFF7ECFF204438BD30B58BB000230B
:106AA000012A8DF8243098BF0A2209AC0D46B1FBAB
:106AB000F2F101FB125303F0FF03092B94BF3033B3
:106AC0003733DBB2AA4204F8013DEFD92146FFF784
:106AD000B5FF0BB030BD2DE9F04186B000AF0546E3
:106AE0000E46381D142114463B60FFF731FD132874
:106AF0000ED8391D2846FFF7A1FF04461EB12846CF
:106B0000FFF7B5FF044420461837BD46BDE8F081C5
:106B100000F1080323F00703E846ADEB030D22461E
:106B2000411C3B686846FFF713FD69462846FFF79E
:106B300085FF0446C546E1E710B50446FFF7CCFAE9
:106B4000E060236820465B699847002808DAFFF771
:106B5000C3FAE368C01AA3689842F2D34FF0FF303B
:106B600010BD2DE9F04107460C468E180D46B54282
:106B7000A5EB040807D03846FFF7DEFF031E02DB53
:106B800005F8013BF3E74046BDE8F081014B024ABE
:106B90001A607047E0E60320EC970B00024B1A687E
:106BA000024B1A60704700BF80E50320E4E6032033
:106BB0000021FFF719BC000010B5044B0360044628
:106BC000806908B1FFF708FF204610BDE4980B006C
:106BD00010B50446FFF7F0FF20461C21FDF75FFAD1
:106BE000204610BD014B00229A607047E8E6032062
:106BF000014B1860704700BF84E5032008B50B4BBC
:106C000043B100F085F903681B699847002801DD4E
:106C1000AFF30080064B43B100F0D8FE03681B6958
:106C20009847002801DDAFF3008008BD0000000098
:106C30000000000008B5FFF7E1FFFFF74DFA014B38
:106C4000186008BD40E703200548064A064908B514
:106C5000121A01F033FC054B054A1A6008BD00BF4B
:106C600000F4032004F40320749C0B0000F40320C0
:106C70001E1C279A07B5002300931A466FF0770170
:106C8000FFF7CCFB03B05DF804FB000007B54388B9
:106C90000A2B08D0502B0BD1094B1B684BB103B00A
:106CA0005DF804EB1847FFF7E5FF03B05DF804FB60
:106CB000002300931A466FF07701FFF7AFFBF4E76C
:106CC000FCE6032010B512480021FFF759FC114BD8
:106CD0001A68114B9A42114B0CBF012200221A7004
:106CE00001D0FFF7B1FFFFF7E7F9044601F0FCFB25
:106CF0000B4B13B12046AFF3008000210848FFF78B
:106D0000FFFBBDE8104007480021FFF77DBB00BF37
:106D1000F16B0B0000F403201E1C279AF8E60320F9
:106D2000000000008D6C0B00704710B51821044660
:106D3000FDF7B5F9204610BDF0B5037D062B8DB0EB
:106D40000E4600F104074FF0000412D000F10805D0
:106D500015F8011D0A223046FFF79FFEAF4204449A
:106D600019D0002CF4D02E213046FFF77DFE0444CC
:106D7000EEE72F236A4639460A208DF80040FFF7D8
:106D8000CBF9684601F0F0FB33680246DB686946E0
:106D900030469847044620460DB0F0BD10B5054B6F
:106DA0000446112240F8043B002101F095FB2046E7
:106DB00010BD00BF14980B000346074A10B543F8F6
:106DC000042B01F1100251F8044B43F8044B91429B
:106DD000F9D10A781A7010BD14980B00037D042BAA
:106DE00004D14068003818BF01207047062B07D136
:106DF00043683BB983682BB9C3681BB90069F1E7E5
:106E0000002070470120704710B59DF8084044EA03
:106E1000032343EA024242EA01610423416003750D
:106E200010BD000013B5044C04609DF810400094A0
:106E3000FFF7EAFF02B010BD14980B0007B5064B30
:106E40000360CB7800938B784A780978FFF7DCFFF2
:106E500003B05DF804FB00BF14980B004174704749
:106E60007047704708B50021007CFFF78DFA40EAB3
:106E7000E07008BD08B50121007CFFF785FA40EA03
:106E8000E07008BD08B5007CFFF776FA20EAE070F4
:106E900008BD08B5007CFFF767FA20EAE07008BD7E
:106EA00013B50446007C0191FFF766FA00280199AA
:106EB00001DC607C20B1207CFFF76EFA20EAE070F4
:106EC00002B010BD007CFFF76FBA10B51421044664
:106ED000FDF7E5F8204610BD10B54FF47A7304466F
:106EE00008460021C4E90113044B236001232074E8
:106EF00063741146FFF730FA204610BD28980B0046
:106F000010B514220446002101F0E6FA204610BD17
:106F100010B50F4C88B003A8FFF7F2FF2178BFF33C
:106F20005B8F11F001010FD120460191FDF7C6F8EA
:106F3000019948B103AA0748FFF7CEFF2046FDF7A5
:106F4000C2F8054801F0ACFA024808B010BD00BF15
:106F500000E7032004E70320616E0B0070474174D3
:106F6000704708B5007CFFF71FF920EAE07008BD04
:106F700008B5007CFFF7F0F820EAE07008BD08B51E
:106F8000007CFFF7F9F840EAE07008BD08B5007C26
:106F9000FFF7EAF840EAE07008BD007CFFF7F4B8BC
:106FA00037B5457C04462DB1207C03B0BDE83040A8
:106FB000FFF7CAB8007C0191FFF7F6F800280199A5
:106FC000F2DC284603B030BD10B514210446FDF7AD
:106FD00066F8204610BD000010B54FF47A730446E1
:106FE000084611460022C4E90123044B2360012313
:106FF00020746374FFF7E0F8204610BD58980B002A
:107000007047F8B5064615460C468F18BC4206D0A8
:10701000336814F8011B9B6830469847F6E728460A
:10702000F8BD007C0022FFF7EFB8007C0021FFF7DD
:10703000F3B8007C0021FFF7F7B8007C0021FFF7D0
:10704000FBB8007C0021FFF7FFB810B514210446FF
:10705000FDF725F8204610BD10B54FF47A730446AD
:1070600008460021C4E90113034B23602074114634
:10707000FFF7FAF8204610BD88980B00007C00222C
:10708000FFF7A2B80023007C1A461946FFF7A4B800
:10709000007C0022FFF7A8B8C9B2FFF7F9BF007C57
:1070A0000022FFF7A9B80121FFF7F9BF13B5036864
:1070B0008DF80710DC6B01224FF0FF330DF1070153
:1070C000A04702B010BD10B40368DC6B4FF0FF3373
:1070D000A4465DF8044B604713B5134602688DF86B
:1070E0000710D46B0DF107010122A04702B010BDBB
:1070F00010B54369B3F88620B3F884309A42044649
:1071000008D06369B3F88420511CA3F88410134499
:10711000187910BD03681B6998470028F1D14FF01A
:10712000FF30F6E7704743691868C043C00F7047E7
:1071300070470000064B994210B500F10C0405D0D1
:10714000084600F0A5FC002808BF0024204610BD1A
:10715000E4970B0010B5AC210446FCF7A0FF2046D5
:1071600010BDAC21FCF79BBF2DE9F0414FF00008AA
:1071700086B01C46C0F8048005460E4617464146B8
:10718000102202A801F0A8F9631C09D04FF47A7309
:10719000B4FBF3F203FB1244CDE902285C430494F0
:1071A000686910230093006802AB41F2050240F6C3
:1071B000FF71FFF761F8002807DAFFF7D1F90368DC
:1071C0006B60002006B0BDE8F081686900230068AC
:1071D0003A463146FFF770F8031EEEDB1846F1E73A
:1071E00030B587B0044601AD6846FFF727FE0FCDE6
:1071F00004340FC42B68237007B030BD70B54D69DF
:10720000054B04468C3544F8043B06460FCD0FC4AD
:107210002B682370304670BD14980B002DE9F043A5
:107220009846036893B00D460024DB6A064617466D
:10723000984728466B46224621460094FEF7ECFE0E
:107240000546002863D1009B002B4BD05B69002BC7
:1072500048D006A8FFF7A2FD009B5C696378022B6B
:1072600004D1211D06A8FFF7BBFF26E00A2B24D17D
:107270001122294601A801F02FF9A368002B38D06C
:1072800004F108030DF1040C1834186859686246BB
:1072900003C20833A3429446F7D1062301A90CA8E0
:1072A0008DF81430FFF788FD0DF1340CBCE80F00A9
:1072B00007AC0FC4DCF80030237006A8FFF78EFD82
:1072C00080B1336807ADD3F82090124B0C930FCDEB
:1072D0000DAC0FC42B6823703A4643460CA93046C8
:1072E000C84705460098FEF78FFE284613B0BDE854
:1072F000F083E368002BC3D14FF6FF70D4F81090F1
:10730000FEF712FF8145BBD104F11401AAE725461F
:10731000E8E700BF14980B0038B543691A68002AE3
:10732000054610DAB3F88620B3F884309A420AD1C1
:1073300003681B699847044628B92B682846DB6A0E
:107340009847204638BD0120FCE710B54369B3F8E3
:107350008620B3F884309A42044605D06369B3F8B6
:1073600084201344187910BD03681B6998470028CE
:10737000F4D14FF0FF30F6E7F8B543691746B3F89C
:107380008620B3F884309A4205460E4616D06969C5
:10739000B1F88430B1F88640E41ABC4228BF3C46BC
:1073A000043322461944304601F088F86A69B2F87D
:1073B00084302344A2F884302046F8BD03681B695A
:1073C00098470028E3D14FF0FF34F5E742690023E6
:1073D000A2F884304269A2F8863070472DE9F04166
:1073E0001F4603680C46DB6A8AB005461646984776
:1073F000237DD5F81480042B0CBF02200A2006221E
:107400000121FEF761FFC8F800006B691B68002BC3
:1074100008DA2B682846DB6A0024984720460AB021
:10742000BDE8F0812846FFF7D1FFB7B1002303A9DB
:10743000F8B20393ADF81030FEF736FE0028E8D11D
:10744000686906230093006803AB41F20B0240F623
:10745000FF71FEF711FF0028DBD11C22002103A8D9
:1074600001F03AF8237D042B1DD14FF40773304609
:10747000ADF80C30FEF760FEADF80E006068FEF768
:1074800053FE04906B691C22186803A9FEF704FFE1
:107490000028BED104340FCC6D698C350FC523682C
:1074A0002B700124BAE740F61C233046ADF80C30AF
:1074B000FEF742FE05AEADF80E00231D04F11407E1
:1074C00018685968324603C20833BB421646F7D1E2
:1074D000D8E7000030B54269B2F886308BB0044678
:1074E0002BB1B2F884209A4201D1FFF76FFF616996
:1074F0000868002818DBB1F886507F2D14D80431B5
:107500000823C5F180022944FEF7CEFE002813DDD2
:107510006369B3F886200AB9A3F884206369B3F8D5
:1075200086201044A3F886006369B3F88600B3F898
:107530008430C01A0BB030BDFFF712F803680B2B74
:10754000F2D0FFF70DF803680B2BEDD020230025B8
:10755000CDE90235FFF704F803680193084B0949A8
:10756000009302AA2B463220FEF72EFF63691868AB
:10757000FEF78AFE63694FF0FF321A60D4E700BF5E
:10758000AF980B00A8980B0010B543690446186823
:10759000002801DBFEF778FE63694FF0FF321A60C6
:1075A0006069112200218C3000F096FF2046BDE872
:1075B0001040FFF70BBF10B5002304460160C0F870
:1075C00084308830FFF7EAFB204610BD73B50023F6
:1075D0004FF47A72C0E901320E4A036102604361DE
:1075E0000446AC200191FCF756FD051E05F10C0682
:1075F00008D00123C5E90133074B01992B603046C0
:10760000FFF7D9FF2046C4E90565FFF7DFFE02B0AA
:1076100070BD00BFE4980B00C8980B0010B54FF088
:10762000FF310446FFF7D2FF204610BD10B50446D7
:107630000068002801DBFEF727FE204610BD0C3055
:10764000FFF7F4BF002240681146FEF709BF002291
:1076500040681146FEF724BF002240681146FEF73D
:107660002FBF40680022FEF723BF4068002281F050
:107670000101FEF70DBF002340681A461946FEF7C8
:10768000FFBE002340681A461946FEF7F1BE0022ED
:1076900040681146FEF7D4BE406800220221FEF782
:1076A000D7BE002340681A46FEF7C2BE024B042232
:1076B0005A60024A1A60704718E7032030990B009D
:1076C000002340681A46FEF7B3BE4068002202213C
:1076D000FEF7BEBE002240681146FEF7B1BE002292
:1076E00040681146FEF7BCBE002340681A461946A2
:1076F000FEF7BEBE002340681A461946FEF7C0BE1C
:1077000040680021FEF7E4BE40680021FEF7E8BEB5
:107710004068002281F00101FEF7BABE40680022F5
:10772000FEF7C6BE002240681146FEF7C9BE002221
:1077300040681146FEF7B4BE2DE9F04395B01446FB
:107740000D460746FFF72AFB00211C220DA80091D9
:1077500000F0C2FE40230C9320466B460CAA002189
:10776000FEF75AFC044600284BD102460121686806
:10777000FEF776FE0221804622466868FEF770FE1C
:10778000009E81462146002E3BD0002939D17368E6
:10779000022B03D00A2B11D0F669F4E7B8F1000FE1
:1077A000FAD0716906A8043107ADFFF747FB0FCD8A
:1077B0003C1D0FC42B6823704146EDE7B9F1000F63
:1077C000EAD07469102201A800F086FE06238DF825
:1077D000143001AD04F108031834186859682A46BA
:1077E00003C20833A3421546F7D101A906A807AD85
:1077F000FFF7E2FA0FCD3C1D0FC42B6823704946FA
:10780000CAE70098FEF700FC384615B0BDE8F083E3
:10781000024B034A1A6000225A60704720E7032097
:107820006C990B00232813B502D9002002B010BDBB
:10783000A0F10B03022B1AD8174C2178BFF35B8FF2
:1078400011F001010BD120460191FCF737FC0199A1
:1078500028B11248FEF7E0FE2046FCF734FC0F4B3F
:107860001878FEF751FD0028DFD10120DEE701285E
:1078700009D800F0E7F80021007CFEF7EDFC80F06D
:107880000100C0B2D2E709380128EED800F09EF816
:10789000007CFEF781FCF2E7B8E60320BCE603209B
:1078A000232838B504460D460AD8FF2908D0FFF72B
:1078B000B9FF28B129462046BDE83840FEF7BCBBD9
:1078C00038BD38B504460D46FEF7BEFBFF2810D084
:1078D000062804D84D2323FA00F0C30709D4204614
:1078E000FFF7A0FF28B129462046BDE83840FEF743
:1078F000B3BB38BD10B50446FEF7A6FB031FDBB2D1
:10790000012B08D92046FFF78DFF20B12046BDE8A6
:107910001040FEF7A9BB002010BD0D2810B504468D
:107920009CBF0E34A4B22046FFF77CFF50B1032168
:107930002046FEF779FB032804D12046BDE810401D
:10794000FEF7A2BB002010BD38B504460D46FFF778
:1079500069FFF0B104212046FEF766FB042805D13B
:10796000A9B22046BDE83840FEF786BB022120467A
:10797000FEF75AFB02280CD12046FEF765FB0128D2
:1079800001D0042805D129462046BDE83840FEF73D
:1079900083BB38BD7047000038B5044614252A461D
:1079A000002100F099FD25804025074925812846C2
:1079B000258200F06BF804496060284600F066F804
:1079C000E060204638BD00BFA0990B0030B50E4DD9
:1079D0002978BFF35B8F11F0010487B011D12846DD
:1079E000FCF76CFB68B101A8FFF7D6FF01AA21469E
:1079F0000648FFF7F1FA2846FCF765FB044800F05B
:107A00004FFD024807B030BD28E703202CE70320D4
:107A100095790B007047000038B5202514230446E3
:107A20000360856005610649284600F02FF8044987
:107A30006060284600F02AF8E060204638BD00BFAC
:107A4000A0990B0030B50E4D2978BFF35B8F11F074
:107A5000010487B011D12846FCF730FB68B101A8BA
:107A6000FFF7DAFF01AA21460648FFF7F5FA284694
:107A7000FCF729FB044800F013FD024807B030BDB5
:107A800044E7032048E70320157A0B00FCF705BB09
:107A9000014900F0F9B800BFBC990B007FB5002484
:107AA0001023CDE90234036815469E6912686B46BF
:107AB000CDE90044B0479DF8043003F00603062BDF
:107AC00003BF009B2B600120204604B070BD0098CE
:107AD000904214BF012006207047000010B5034BF0
:107AE0000360044600F0CDF8204610BDFC990B0061
:107AF00010B50446FFF7F2FF20460821FCF7CFFA45
:107B0000204610BD2DE9F0411F46DDE90834DDF8BF
:107B1000188098450646154607D1079900F0B4F835
:107B200018B165710020BDE8F0813946304600F09B
:107B3000ABF80028F6D00123C4F800802571A371AA
:107B4000F0E738B515461C4600F09EF820B1082332
:107B5000E36006232560237138BD73B505460C46E6
:107B600001921E4600F090F850B9032E08D8236801
:107B7000019A5B692946204602B0BDE8704018476B
:107B800002B070BD10B5034B03600446FFF7A6FFBB
:107B9000204610BD5C9A0B0010B50446FFF7F2FFBB
:107BA00020460C21FCF77BFA204610BDF7B5089F54
:107BB000974205460E4614460AD0A8680268089700
:107BC000156A31462246AC4603B0BDE8F040604736
:107BD0001946019300F058F8019B0028EDD00620CB
:107BE00003B0F0BD2DE9F14F0D461946DDE90A4B12
:107BF000DDE90CA681461746984600F045F890B19D
:107C0000002D3460377109DB61198A450CBF0621EC
:107C10000121B171002001B0BDE8F08F0235F9D12A
:107C20000123B371F6E7544506D15946484600F0A2
:107C30002BF808B17771EDE7D9F808000368CDE9B2
:107C40000CA6CDE90A4BDC693A4643462946A446D0
:107C500001B0BDE8F04F60472DE9F04107460C4602
:107C600015461E46FFF76DFF48B9B86803689F695F
:107C70002A4633462146BC46BDE8F0416047BDE890
:107C8000F081704700207047814208B50ED04068EF
:107C900003782A2B0CD049680B782A2B08BF0131B6
:107CA00000F050FCB0FA80F0400908BD0120FCE76C
:107CB0000020FAE781F0004102E000BF83F00043BA
:107CC00030B54FEA41044FEA430594EA050F08BF77
:107CD00090EA020F1FBF54EA000C55EA020C7FEA3B
:107CE000645C7FEA655C00F0E2804FEA5454D4EBB8
:107CF0005555B8BF6D420CDD2C4480EA020281EA82
:107D0000030382EA000083EA010180EA020281EAB9
:107D10000303362D88BF30BD11F0004F4FEA01310B
:107D20004FF4801C4CEA113102D0404261EB41011A
:107D300013F0004F4FEA03334CEA133302D05242A0
:107D400063EB430394EA050F00F0A780A4F101045C
:107D5000D5F1200E0DDB02FA0EFC22FA05F2801896
:107D600041F1000103FA0EF2801843FA05F359417C
:107D70000EE0A5F120050EF1200E012A03FA0EFCFB
:107D800028BF4CF0020C43FA05F3C01851EBE37125
:107D900001F0004507D54FF0000EDCF1000C7EEB42
:107DA00000006EEB0101B1F5801F1BD3B1F5001F80
:107DB0000CD349085FEA30004FEA3C0C04F101049F
:107DC0004FEA445212F5800F80F09A80BCF1004FC8
:107DD00008BF5FEA500C50F1000041EB045141EA4A
:107DE000050130BD5FEA4C0C404141EB0101013C13
:107DF00028BFB1F5801FE9D291F0000F04BF014602
:107E00000020B1FA81F308BF2033A3F10B03B3F1D3
:107E100020020CDA0C3208DD02F1140CC2F10C0263
:107E200001FA0CF021FA02F10CE002F11402D8BFC1
:107E3000C2F1200C01FA02F120FA0CFCDCBF41EA8D
:107E40000C019040E41AA2BF01EB0451294330BD5C
:107E50006FEA04041F3C1CDA0C340EDC04F1140439
:107E6000C4F1200220FA04F001FA02F340EA030010
:107E700021FA04F345EA030130BDC4F10C04C4F156
:107E8000200220FA02F001FA04F340EA0300294636
:107E900030BD21FA04F0294630BD94F0000F83F480
:107EA000801306BF81F480110134013D4EE77FEA63
:107EB000645C18BF7FEA655C29D094EA050F08BFAF
:107EC00090EA020F05D054EA000C04BF1946104690
:107ED00030BD91EA030F1EBF0021002030BD5FEAD4
:107EE000545C05D14000494128BF41F0004130BDFC
:107EF00014F580043CBF01F5801130BD01F0004550
:107F000045F0FE4141F470014FF0000030BD7FEAC2
:107F1000645C1ABF194610467FEA655C1CBF0B46BD
:107F2000024650EA013406BF52EA033591EA030FD4
:107F300041F4002130BD00BF90F0000F04BF0021CC
:107F4000704730B54FF4806404F132044FF00005FF
:107F50004FF0000150E700BF90F0000F04BF002178
:107F6000704730B54FF4806404F1320410F00045DE
:107F700048BF40424FF000013EE700BF42004FEAD9
:107F8000E2014FEA31014FEA02701FBF12F07F4356
:107F900093F07F4F81F06051704732F07F4208BF0D
:107FA000704793F07F4F04BF41F40021704730B514
:107FB0004FF4607401F0004521F000411CE700BF60
:107FC00050EA010208BF704730B54FF000050AE0E3
:107FD00050EA010208BF704730B511F0004502D5E4
:107FE000404261EB41014FF4806404F132045FEAE6
:107FF000915C3FF4D8AE4FF003025FEADC0C18BF8F
:1080000003325FEADC0C18BF033202EBDC02C2F180
:10801000200300FA03FC20FA02F001FA03FE40EA12
:108020000E0021FA02F11444BDE600BF70B54FF016
:10803000FF0C4CF4E06C1CEA11541DBF1CEA1355F4
:1080400094EA0C0F95EA0C0F00F0DEF82C4481EA5C
:10805000030621EA4C5123EA4C5350EA013518BF7C
:1080600052EA033541F4801143F4801338D0A0FB69
:1080700002CE4FF00005E1FB02E506F00042E0FB16
:1080800003E54FF00006E1FB03569CF0000F18BF1C
:108090004EF0010EA4F1FF04B6F5007F64F54074C4
:1080A00004D25FEA4E0E6D4146EB060642EAC62157
:1080B00041EA55514FEAC52040EA5E504FEACE2EC4
:1080C000B4F1FD0C88BFBCF5E06F1ED8BEF1004FC7
:1080D00008BF5FEA500E50F1000041EB045170BD43
:1080E00006F0004646EA010140EA020081EA030187
:1080F000B4EB5C04C2BFD4EB0C0541EA045170BD83
:1081000041F480114FF0000E013C00F3AB8014F1FC
:10811000360FDEBF002001F0004170BDC4F1000445
:10812000203C35DA0C341BDC04F11404C4F12005C6
:1081300000FA05F320FA04F001FA05F240EA020021
:1081400001F0004221F0004110EBD37021FA04F657
:1081500042EB06015EEA430E08BF20EAD37070BD11
:10816000C4F10C04C4F1200500FA04F320FA05F070
:1081700001FA04F240EA020001F0004110EBD37072
:1081800041F100015EEA430E08BF20EAD37070BDE2
:10819000C4F1200500FA05F24EEA020E20FA04F3BB
:1081A00001FA05F243EA020321FA04F001F000416A
:1081B00021FA04F220EA020000EBD3705EEA430EDB
:1081C00008BF20EAD37070BD94F0000F0FD101F00A
:1081D0000046400041EB010111F4801F08BF013C43
:1081E000F7D041EA060195F0000F18BF704703F081
:1081F0000046520043EB030313F4801F08BF013D08
:10820000F7D043EA0603704794EA0C0F0CEA1355C3
:1082100018BF95EA0C0F0CD050EA410618BF52EA7D
:108220004306D1D181EA030101F000414FF0000083
:1082300070BD50EA410606BF1046194652EA430691
:1082400019D094EA0C0F02D150EA013613D195EA05
:108250000C0F05D152EA03361CBF104619460AD14D
:1082600081EA030101F0004141F0FE4141F4700157
:108270004FF0000070BD41F0FE4141F4780170BD47
:1082800070B54FF0FF0C4CF4E06C1CEA11541DBFAC
:108290001CEA135594EA0C0F95EA0C0F00F0A7F8AE
:1082A000A4EB050481EA030E52EA03354FEA0131DB
:1082B00000F088804FEA03334FF0805545EA1313EE
:1082C00043EA12634FEA022245EA111545EA1065B6
:1082D0004FEA00260EF000419D4208BF964244F14D
:1082E000FD0404F5407402D25B084FEA3202B61A6C
:1082F00065EB03055B084FEA32024FF480104FF440
:10830000002CB6EB020E75EB030E22BFB61A7546B3
:1083100040EA0C005B084FEA3202B6EB020E75EB46
:10832000030E22BFB61A754640EA5C005B084FEAAE
:108330003202B6EB020E75EB030E22BFB61A75467B
:1083400040EA9C005B084FEA3202B6EB020E75EB86
:10835000030E22BFB61A754640EADC0055EA060E47
:1083600018D04FEA051545EA16754FEA06164FEA8A
:10837000C30343EA52734FEAC2025FEA1C1CC0D136
:1083800011F4801F0BD141EA00014FF000004FF0C3
:10839000004CB6E711F4801F04BF01430020B4F184
:1083A000FD0C88BFBCF5E06F3FF6AFAEB5EB030C3C
:1083B00004BFB6EB020C5FEA500C50F1000041EB39
:1083C000045170BD0EF0004E4EEA113114EB5C0406
:1083D000C2BFD4EB0C0541EA045170BD41F48011D9
:1083E0004FF0000E013C90E645EA060E8DE60CEAE1
:1083F000135594EA0C0F08BF95EA0C0F3FF43BAFFE
:1084000094EA0C0F0AD150EA01347FF434AF95EAB4
:108410000C0F7FF425AF104619462CE795EA0C0F98
:1084200006D152EA03353FF4FDAE1046194622E765
:1084300050EA410618BF52EA43067FF4C5AE50EA3F
:1084400041047FF40DAF52EA43057FF4EBAE12E72F
:108450004FEA410212F5001215D211D56FF478736C
:10846000B3EB625212D94FEAC12343F0004343EA0F
:10847000505311F0004F23FA02F018BF40427047EA
:108480004FF00000704750EA013005D111F0004074
:1084900008BF6FF0004070474FF00000704700BF0A
:1084A000002301461A46184600F006B90A220021A8
:1084B00000F0F8B80A22002100F0F4B80A44914212
:1084C00000F1FF3300D1704710B511F8014B03F8EC
:1084D000014F9142F9D110BD02440346934200D1AD
:1084E000704703F8011BF9E738B5104B1D68AB6BFB
:1084F0000446B3B91820FEF70BF80246A86320B96A
:108500000B4B0C484221FEF733F80B490B4BC0E9EB
:1085100000130B4B83600B23838100210120C2E9F0
:108520000401AB6B00221C615A6138BD84E5032055
:10853000959A0B00AC9A0B000E33CDAB34126DE65E
:10854000ECDE050010F8012B11F8013B012A28BFD1
:108550009A42F7D0D01A7047034611F8012B03F85E
:10856000012B002AF9D17047034613F8012B002A8A
:10857000FBD1181A0138704710B50139034632B1E2
:1085800011F8014F03F8014B013A002CF7D11A44BE
:108590000021934200D110BD03F8011BF9E7000050
:1085A000012B2DE9F04701D0242B06D9FDF7D8FF88
:1085B000162303600020BDE8F087DFF8E4C00D4615
:1085C0002E4615F8014B14F80C7017F00807F7D178
:1085D0002D2C32D12C780127B51C002B5BD0102B11
:1085E00009D1302C07D12C7804F0DF04582C4DD160
:1085F0006C781023023507F1004808F1FF384FF07E
:10860000000CB8FBF3F9664603FB198AA4F1300E9F
:10861000BEF1090F16D87446A34224DDBCF1000F49
:108620001EDBB1451CD301D1A24519DB06FB034675
:108630004FF0010C15F8014BE8E72B2C04BF2C7808
:10864000B51CCAE7A4F1410EBEF1190F01D8373CA1
:10865000E2E7A4F1610EBEF1190F04D8573CDBE745
:108660004FF0FF3CE6E7BCF1000F05DA2223036080
:10867000464642B930469EE707B17642002AF9D015
:10868000BCF1000F00D0691E1160F3E73024002B0D
:10869000B1D10823AFE7302CA5D00A23ABE700BF48
:1086A0002A9B0B0013460A46014602480068FFF762
:1086B00077BF00BF84E503202DE9F843DFF8B880D9
:1086C0000646D8F800001F460D46914600F056F8C1
:1086D000254B1C6834B9254C1C60254B13B11B6815
:1086E000C4F8883063681F2B07DDD8F8000000F05D
:1086F00047F84FF0FF30BDE8F8834EB3D4F8880058
:1087000088B91C4B23B9D8F8000000F038F8F0E71E
:108710004FF48470FDF7FCFE0028F4D00023C0E97C
:108720004033C4F88800636840F8239001229A40DF
:1087300000EB8301D0F800311343C0F80031022E62
:10874000C1F8807002BFD0F804311343C0F804317F
:108750006368D8F800005A1C0233626044F8235062
:1087600000F00EF80020C6E7E8E703205CE70320EE
:108770000000000011650B00E8E50320704770471A
:108780007047000021400B005D400B0085400B004E
:1087900089400B000000000043616C6C206F6E206C
:1087A00070757265207669727475616C0025690058
:1087B000256C6900696E006F75740070776D0064D8
:1087C0007700617700767700507573682053656E87
:1087D00074005468652074656D706572617475729B
:1087E000652069732000632C2000662E0066003728
:1087F000337176384277754B4D4C4F31326C323491
:10880000456B6C6F4C4F496C55537A31694133005D
:10881000626C6E6B696E660076657200312E312E69
:108820003000682D626561740034350062756666DB
:108830002D696E003130323400646576005061720B
:108840007469636C65204172676F6E006275696C54
:1088500064004A756E203239203230323220313491
:108860003A35383A3532000000000000C14C0B00A8
:10887000C14C0B00C14C0B00C14C0B00C14C0B0098
:10888000C14C0B00C14C0B00C14C0B00C14C0B0088
:10889000C14C0B00C14C0B00C14C0B00C14C0B0078
:1088A000C14C0B00C14C0B00C14C0B00C14C0B0068
:1088B000C14C0B00C14C0B00C14C0B00C14C0B0058
:1088C000C14C0B00C14C0B00C14C0B00C14C0B0048
:1088D000C14C0B00C14C0B00C14C0B00C14C0B0038
:1088E000C14C0B00C14C0B00C14C0B00C14C0B0028
:1088F000C14C0B00C14C0B00C14C0B00C14C0B0018
:10890000C14C0B00C14C0B00C14C0B00C14C0B0007
:10891000C14C0B00C14C0B00C14C0B00C14C0B00F7
:10892000C14C0B00C14C0B00C14C0B00C14C0B00E7
:10893000C14C0B00C14C0B00C14C0B00C14C0B00D7
:10894000C14C0B00C14C0B00C14C0B00C14C0B00C7
:10895000C14C0B00C14C0B00C14C0B00C14C0B00B7
:10896000C14C0B00C14C0B00C14C0B00C14C0B00A7
:10897000C14C0B00C14C0B00C14C0B00C14C0B0097
:10898000C14C0B00C14C0B00C14C0B00C14C0B0087
:10899000C14C0B00C14C0B00C14C0B00C14C0B0077
:1089A000C14C0B00C14C0B00C14C0B00C14C0B0067
:1089B000C14C0B00C14C0B00C14C0B00C14C0B0057
:1089C000C14C0B00C14C0B00C14C0B00C14C0B0047
:1089D000C14C0B00C14C0B00C14C0B00C14C0B0037
:1089E000C14C0B00C14C0B00C14C0B00C14C0B0027
:1089F000C14C0B00C14C0B00C14C0B00C14C0B0017
:108A0000C14C0B00C14C0B00C14C0B00C14C0B0006
:108A1000C14C0B00C14C0B00C14C0B00C14C0B00F6
:108A2000C14C0B00C14C0B00C14C0B00C14C0B00E6
:108A3000C14C0B00C14C0B00C14C0B00C14C0B00D6
:108A4000C14C0B00C14C0B00C14C0B00C14C0B00C6
:108A5000C14C0B00C14C0B00C14C0B00C14C0B00B6
:108A6000C14C0B00C14C0B00C14C0B00C34C0B00A4
:108A7000C34C0B00C34C0B00C34C0B00C34C0B008E
:108A8000C34C0B00C34C0B00C34C0B00C34C0B007E
:108A9000C34C0B00C34C0B00C34C0B00C34C0B006E
:108AA000C34C0B00C34C0B00C34C0B00C34C0B005E
:108AB000C34C0B00C34C0B00C34C0B00C34C0B004E
:108AC000C34C0B00C34C0B00C34C0B00C34C0B003E
:108AD000C34C0B00C34C0B00C34C0B00C34C0B002E
:108AE000C34C0B00C34C0B00C34C0B00C34C0B001E
:108AF000C34C0B00C34C0B00C34C0B00C34C0B000E
:108B0000C34C0B00C34C0B00C34C0B00C34C0B00FD
:108B1000C34C0B00C34C0B00C34C0B00C34C0B00ED
:108B2000C34C0B00C34C0B00C34C0B00C34C0B00DD
:108B3000C34C0B00C34C0B00C34C0B00C34C0B00CD
:108B4000C34C0B00C34C0B00C34C0B00C34C0B00BD
:108B5000C34C0B00C34C0B00C34C0B00C34C0B00AD
:108B6000C34C0B00C34C0B00C34C0B00C34C0B009D
:108B7000C34C0B00C34C0B00C34C0B00C34C0B008D
:108B8000C34C0B00C34C0B00C34C0B00C34C0B007D
:108B9000C34C0B00C34C0B00C34C0B00C34C0B006D
:108BA000C34C0B00C34C0B00C34C0B00C34C0B005D
:108BB000C34C0B00C34C0B00C34C0B00C34C0B004D
:108BC000C34C0B00C34C0B00C34C0B00C34C0B003D
:108BD000C34C0B00C34C0B00C34C0B00C34C0B002D
:108BE000C34C0B00C34C0B00C34C0B00C34C0B001D
:108BF000C34C0B00C34C0B00C34C0B00C34C0B000D
:108C0000C34C0B00C34C0B00C34C0B00C34C0B00FC
:108C1000C34C0B00C34C0B00C34C0B00C34C0B00EC
:108C2000C34C0B00C34C0B00C34C0B00C34C0B00DC
:108C3000C34C0B00C34C0B00C34C0B00C34C0B00CC
:108C4000C34C0B00C34C0B00C34C0B00C34C0B00BC
:108C5000C34C0B00C34C0B00C34C0B00C34C0B00AC
:108C6000C34C0B00C34C0B00C34C0B006465666126
:108C7000756C7420004D5342004C5342003C5350DD
:108C80004953657474696E67732064656661756CB9
:108C9000743E003C53504953657474696E67732089
:108CA00025732575202573204D4F444525753E00BD
:108CB00000000000003E5B4F5B3E3E6B4F6B3E1C76
:108CC0003E7C3E1C183C7E3C181C577D571C1C5E8D
:108CD0007F5E1C00183C1800FFE7C3E7FF00182464
:108CE0001800FFE7DBE7FF30483A060E262979290E
:108CF00026407F050507407F05253F5A3CE73C5A43
:108D00007F3E1C1C08081C1C3E7F14227F22145F1F
:108D10005F005F5F06097F017F006689956A60607A
:108D200060606094A2FFA29408047E040810207E74
:108D3000201008082A1C08081C2A08081E101010F9
:108D4000100C1E0C1E0C30383E3830060E3E0E063F
:108D5000000000000000005F000000070007001492
:108D60007F147F14242A7F2A122313086462364951
:108D70005620500008070300001C22410000412239
:108D80001C002A1C7F1C2A08083E0808008070303E
:108D900000080808080800006060002010080402AD
:108DA0003E5149453E00427F4000724949494621B3
:108DB00041494D331814127F1027454545393C4A27
:108DC000494931412111090736494949364649493E
:108DD000291E000014000000403400000008142286
:108DE00041141414141400412214080201590906F4
:108DF0003E415D594E7C1211127C7F494949363EF5
:108E0000414141227F4141413E7F494949417F09DA
:108E10000909013E414151737F0808087F00417FE5
:108E200041002040413F017F081422417F404040E3
:108E3000407F021C027F7F0408107F3E4141413E7B
:108E40007F090909063E4151215E7F0919294626FD
:108E50004949493203017F01033F4040403F1F2001
:108E600040201F3F4038403F6314081463030478D8
:108E700004036159494D43007F41414102040810F8
:108E800020004141417F0402010204404040404033
:108E9000000307080020545478407F2844443838A1
:108EA00044444428384444287F3854545418000813
:108EB0007E090218A4A49C787F0804047800447DED
:108EC00040002040403D007F1028440000417F408A
:108ED000007C047804787C080404783844444438DE
:108EE000FC1824241818242418FC7C0804040848BE
:108EF0005454542404043F44243C4040207C1C200F
:108F000040201C3C4030403C44281028444C909069
:108F1000907C4464544C44000836410000007700C3
:108F200000004136080002010204023C2623263CD0
:108F30001EA1A161123A4040207A3854545559215B
:108F40005555794122545478422155547840205443
:108F50005579400C1E527212395555555939545491
:108F6000545939555454580000457C410002457D00
:108F7000420001457C407D1211127DF0282528F029
:108F80007C545545002054547C547C0A097F493256
:108F9000494949323A4444443A324A4848303A41CD
:108FA00041217A3A42402078009DA0A07D3D424276
:108FB000423D3D4040403D3C24FF2424487E4943FF
:108FC000662B2FFC2F2BFF0929F620C0887E090372
:108FD00020545479410000447D413048484A323899
:108FE0004040227A007A0A0A727D0D19317D2629C5
:108FF000292F28262929292630484D4020380808BD
:10900000080808080808382F10C8ACBA2F102834F0
:10901000FA00007B000008142A142222142A1408E3
:109020005500550055AA55AA55AAFF55FF55FF00F2
:109030000000FF00101010FF00141414FF001010A7
:10904000FF00FF1010F010F0141414FC001414F7BB
:1090500000FF0000FF00FF1414F404FC14141710A8
:109060001F10101F101F1414141F00101010F000F8
:109070000000001F101010101F10101010F0100032
:109080000000FF101010101010101010FF10000042
:1090900000FF140000FF00FF00001F10170000FC7D
:1090A00004F414141710171414F404F40000FF004F
:1090B000F714141414141414F700F71414141714D8
:1090C00010101F101F141414F4141010F010F000DE
:1090D000001F101F0000001F14000000FC140000FF
:1090E000F010F01010FF10FF141414FF14101010E3
:1090F0001F00000000F010FFFFFFFFFFF0F0F0F096
:10910000F0FFFFFF0000000000FFFF0F0F0F0F0F29
:109110003844443844FC4A4A4A347E020206060275
:109120007E027E0263554941633844443C04407EDC
:10913000201E2006027E020299A5E7A5991C2A4955
:109140002A1C4C7201724C304A4D4D3030487848E0
:1091500030BC625A463D3E494949007E0101017ECC
:109160002A2A2A2A2A44445F444440514A4440401F
:10917000444A51400000FF0103E080FF000008085E
:109180006B6B083612362436060F090F06000018DE
:10919000180000001010003040FF0101001F010105
:1091A0001E00191D1712003C3C3C3C000000000052
:1091B00000000000000000000000000000000000AF
:1091C00029540B00116A0B00A5400B002F4E0B0019
:1091D000314E0B00634E0B003F4E0B00514E0B0007
:1091E000714D0B002F4E0B005B500B0059500B00C4
:1091F0007B4E0B00B94E0B00F34E0B00394F0B00AA
:10920000554F0B00D94F0B0000000000000000007C
:1092100039550B0059550B0029540B00116A0B00EE
:1092200041570B002F4E0B00314E0B00634E0B00CD
:109230003F4E0B00514E0B00714D0B002F4E0B009B
:109240005B500B00DF580B00875E0B00395E0B0094
:10925000F34E0B00394F0B00554F0B00D94F0B004D
:1092600000000000000000001D4D0B00F14C0B0041
:10927000F34C0B0000000000000180000000000023
:109280000000000003800000000000000000000754
:10929000C000000000000000000007C00000000047
:1092A00000000000000FC0000000000000000000EF
:1092B0001FE00000000000000000001FE0000000B0
:1092C0000000000000003FE000000000000000007F
:1092D000003FF00000000000000000007FF00000F0
:1092E00000000000001FF87FF000000000000000F8
:1092F0003FFE7FF0000000000000003FFF7FF00015
:109300000000000000001FFFFBE000000000000064
:10931000000FFFF9FFC00000000000000FFFF9FF81
:10932000F800000000000007FFF1FFFF0000000050
:10933000000003FC73FFFF80000000000001FE3FFF
:10934000FFFF80000000000000FF1E0FFF00000074
:10935000000000007FFE1FFC000000000000003F36
:10936000FFFFF8000000000000000FDFFFE000003A
:1093700000000000001F19FFC000000000000000F6
:109380003F3CFF00000000000000007E7CF8000071
:109390000000000000007FFE7C00000000000000D4
:1093A00000FFFFFC0000000000000000FFFFFE00C7
:1093B00000000000000000FFFFFE000000000000B1
:1093C0000001FFEFFE0000000000000001FFCFFEE3
:1093D0000000000000000003FF07FE000000000086
:1093E000000003FC07FE0000000000000003F00383
:1093F000FE00000000000000018000FE00000000F0
:109400000000000000007E000000000000000000DE
:10941000003E000000000000000000000C00000002
:10942000000000078000FC000003C000000007806F
:1094300001FC000003C0000000078001FC000003E5
:10944000C0000000078001E00000001E00000007CF
:109450008001E00000001E007FE3F79FF9FDE77840
:109460007BDFC0FFF7FFBFFDFDFF787BDFC0FFF7AD
:10947000FFBFFDFDFF787BDFC0F0F787BC3DE1FF5C
:10948000787BDE00F0F787BC3DE1F0787BDE000002
:10949000F787803DE1E0787BDE007FF7879FFDE185
:1094A000E0787BDE00FFF787BFFDE1E0787BDE0040
:1094B000F0F787BC3DE1E0787BDE00F0F787BC3D4C
:1094C000E1E0787BDE00F0F787BC3DE1E0787BDE11
:1094D00000FFF7FFBFFDE1E07FFBDFC0FFF7FFBF4D
:1094E000FDE1E07FFBDFC07CF3F39F3DE1E03E7BED
:1094F000CFC00000000000000000000000FFFFFFE0
:10950000FFFFFFFFFFFFFFC0FFFFFFFFFD68DB1155
:109510001A31C0FFFFFFFFFD2B5AFB6AEFC0FFFFB0
:10952000FFFFFD4B5B3B1A33C0FFFFFFFFFD6B5B93
:10953000DB6AFDC0000060000000000000000000C9
:109540000000000000E0000000000000000000003B
:1095500000000001E000000000000000000000002A
:10956000000001F00000000000000000000000000A
:109570000003F000000000000000000000000000F8
:1095800007F00000000000000000000000000007DD
:10959000F8000000000000000000000000000FF8CC
:1095A00000000003C0007E000001E0007F0FF80013
:1095B000000003C000FE000001E000FFEFF8000023
:1095C0000003C000FE000001E000FFFFF800000003
:1095D00003C000F00000000F007FFE7FC00000030A
:1095E000C000F00000000F003FFE7FF83FF1FBCF0E
:1095F000FCFEF3BC3DEFE01FFE7FFF7FFBFFDFFEC5
:10960000FEFFBC3DEFE01FC6FFFF7FFBFFDFFEFE5E
:10961000FFBC3DEFE00FE3C7FE787BC3DE1EF0FF2B
:10962000BC3DEF0007FF87FC787BC3DE1EF0F83CF3
:109630003DEF0001FFFFF0007BC3C01EF0F03C3D9A
:10964000EF0001F37FE03FFBC3CFFEF0F03C3DEFC6
:109650000003E33F807FFBC3DFFEF0F03C3DEF0003
:1096600007E73C00787BC3DE1EF0F03C3DEF0007CF
:10967000FFBE00787BC3DE1EF0F03C3DEF0007FF2D
:10968000FE00787BC3DE1EF0F03C3DEF000FFFFED6
:10969000007FFBFFDFFEF0F03FFDEFE00FFFFF007C
:1096A0007FFBFFDFFEF0F03FFDEFE00FF9FF003E34
:1096B00079F9CF9EF0F01F3DE7E01FF1FF000000B9
:1096C0000000000000000000001F80FF007FFFFF7F
:1096D000FFFFFFFFFFFFFFE01C007F007FFFFFFF9A
:1096E000FEB46D888D18E000001F007FFFFFFFFEB5
:1096F00095AD7DB577E000000F007FFFFFFFFEA571
:10970000AD9D8D19E0000006007FFFFFFFFEB5ADA7
:10971000EDB57EE0000000000000000015570B00D2
:109720002D570B0029540B00116A0B0041570B00F9
:109730002F4E0B00314E0B00634E0B003F4E0B00C3
:10974000514E0B00714D0B002F4E0B005B500B0068
:10975000DF580B00875E0B00395E0B00F34E0B00E9
:10976000394F0B00554F0B00D94F0B000080C0E064
:10977000F0F8FCFE000103070F1F3F7FAED580A865
:10978000D300408D2000A1C8DB40A4A62EAFDA0292
:10979000818FDA1281DA02812200FF2100000000AD
:1097A0000000000000000000EF650B00E5650B0005
:1097B000DB650B00D1650B00C5650B00B9650B00BF
:1097C00001770B0009770B00AD650B00A5650B0059
:1097D0009B650B0091650B0039770B000008101892
:1097E0002028303800000000000000006170700088
:1097F00025592D256D2D25645425483A254D3A25AA
:1098000053257A0061736374696D65000000000080
:1098100000000000396D0B00296D0B002B6D0B0053
:109820000000000000000000636E0B00CB6E0B0018
:10983000A16E0B00116A0B00936E0B00656E0B009E
:10984000756E0B00C56E0B00856E0B005D6E0B0018
:1098500000000000000000005D6F0B00C96F0B00EE
:10986000A16F0B00116A0B00716F0B008D6F0B0065
:109870007F6F0B009B6F0B005F6F0B00636F0B0024
:10988000000000000000000001700B004B700B0096
:1098900023700B0003700B002B700B0033700B0058
:1098A0003B700B0043700B00776972696E67007242
:1098B000656376206572726F72203D20256400001A
:1098C000000000000000000031710B0055710B001A
:1098D0003F760B0063710B0035710B000000000038
:1098E00000000000B96B0B00D16B0B00AD700B00DA
:1098F000C7700B00D5740B00F1700B004B730B009D
:1099000025710B00DD730B001D720B0079730B00CA
:1099100089750B0019730B0027710B00D9700B00B0
:1099200069710B00FD710B000000000000000000D9
:10993000A3760B0099760B008F760B0045760B0013
:1099400083760B0077760B0001770B0009770B000D
:109950006B760B0063760B0059760B004F760B008D
:1099600039770B000000000000000000C1760B00FA
:10997000CB760B00D5760B00DF760B00E9760B007B
:10998000F5760B0001770B0009770B0011770B00C0
:109990001D770B0025770B002F770B0039770B0015
:1099A00000537431395F53705F6D616B655F73682D
:1099B000617265645F74616700000000FC990B00D0
:1099C000A1990B005C9A0B00D0990B00809A0B00B8
:1099D0004E31305F5F637878616269763131375F2D
:1099E0005F636C6173735F747970655F696E666FD6
:1099F0004500000000000000C4990B00DD7A0B0058
:109A0000F17A0B00857C0B00857C0B005B7B0B00E7
:109A10009D7A0B00437B0B00057B0B00CF7A0B007C
:109A20005C9A0B002C9A0B00C4990B004E31305FEE
:109A30005F637878616269763132305F5F73695F46
:109A4000636C6173735F747970655F696E666F458F
:109A50000000000000000000209A0B00857B0B0036
:109A6000997B0B00857C0B00857C0B005B7B0B00DE
:109A70009D7A0B00597C0B00E57B0B00AD7B0B0046
:109A8000FC990B00889A0B00537439747970655FE8
:109A9000696E666F005245454E54206D616C6C6F67
:109AA0006320737563636565646564002F6D6E7410
:109AB0002F776F726B73706163652F776F726B7343
:109AC000706163652F4743432D31302D7069706598
:109AD0006C696E652F6A656E6B696E732D474343C3
